:020000040800F2
:1000000000500020592000081D1E00081F1E000877
:10001000211E0008231E0008251E00080000000005
:10002000000000000000000000000000271E000883
:10003000291E0008000000002B1E00082D1E0008CD
:10004000A1200008A1200008A1200008A12000088C
:10005000A1200008A1200008A1200008A12000087C
:10006000A1200008A1200008A1200008A12000086C
:10007000A1200008A1200008A1200008A12000085C
:10008000A1200008A1200008A1200008A12000084C
:10009000A1200008A1200008A1200008A12000083C
:1000A000A1200008A1200008A1200008A12000082C
:1000B000A1200008A1200008A1200008A12000081C
:1000C000A1200008A1200008A1200008A12000080C
:1000D000A1200008311E00083D1E0008A1200008D4
:1000E000A1200008A1200008A120000800000000B5
:1000F0000000000000000000000000000000000000
:0C01000000000000000000005FF808F1A3
:10010C0010B5054C237833B9044B13B10448AFF345
:10011C0000800123237010BD70000020000000003F
:10012C006428000808B5034B1BB103490348AFF31F
:10013C00008008BD00000000740000206428000846
:10014C0038B50E4B054618784FF47A73B3FBF0F3C1
:10015C000B4A1068B0FBF3F000F0A0F8044658B955
:10016C000F2D09D8024629464FF0FF3000F054F805
:10017C00044B20461D6038BD012038BD0000002016
:10018C000800002004000020074A08B5136803206B
:10019C0043F01003136000F02DF80020FFF7D0FFA0
:1001AC0001F014FE002008BD00200240034A044B5D
:1001BC0011681B780B441360704700BF9C00002033
:1001CC0000000020014B1868704700BF9C00002005
:1001DC0038B50446FFF7F6FF0546631C1EBF044BFB
:1001EC001B78E418FFF7EEFF401B8442FAD838BDA9
:1001FC0000000020074A0002D36800F4E06023F4FA
:10020C00E0631B041B0C43F0BF6343F40033034354
:10021C00D360704700ED00E0174B30B5DC68C4F3D9
:10022C000224C4F10703251D042B28BF0423062D2B
:10023C004FF0010598BF002405FA03F303F1FF33D7
:10024C0088BF033C1940A14005FA04F4013C22404C
:10025C00002842EA01024FEA0212A9BF00F16040F5
:10026C00064BD2B200F56140BBBF00F00F00D2B21A
:10027C0080F800231A5430BD00ED00E014ED00E0CE
:10028C00002808DB0123420900F01F0003FA00F0EC
:10029C00014B43F82200704700E100E00138B0F157
:1002AC00807F0AD2F021064B064A586082F8231050
:1002BC000020072298601A6070470120704700BF29
:1002CC0010E000E000ED00E090F8213010B5022BBA
:1002DC0003D004238363012010BD03681A6822F045
:1002EC000E021A601A6822F001021A60184A934230
:1002FC001FD0143293421ED0143293421DD01432AC
:10030C0093421DD0143293421DD0143293420CBF31
:10031C004FF480134FF080730E4A00245360012376
:10032C0080F82130436B80F820407BB19847204601
:10033C0010BD0123F0E71023EEE74FF48073EBE7D9
:10034C004FF48053E8E74FF48033E5E7184610BDCF
:10035C0008000240000002402DE9F74F0024264619
:10036C00664BDFF8A8E1DFF8A8C10A6832FA06F597
:10037C0002D103B0BDE8F08F4FF0010808FA06F87F
:10038C0002EA080290457FD14D68122D00F0AA8038
:10039C0000F28380022D00F0A28077D8002D00F0AF
:1003AC008980012D00F099804FF00F09FF2A93BF2F
:1003BC00824606F18045083DD0F800B092BFB500EA
:1003CC00D0F804B0AD0009FA05F82BEA080804FAD5
:1003DC0005F588BF00F1040A48EA0505CAF8005083
:1003EC00D1F804A01AF0805F4ED0454D444FAD6952
:1003FC0026F0030845F00105BD61BD6908F1804890
:10040C0005F00105019508F5803806F0030B019DF8
:10041C004FEA8B0BD8F8085009FA0BF925EA0909B1
:10042C00384DA84263D005F58065A84261D005F52A
:10043C008065A8425FD005F58065A8420CBF0325F6
:10044C00042505FA0BF545EA0905C8F808501D689E
:10045C001AF4803F14BF154395431D605D681AF470
:10046C00003F14BF154395435D609D681AF4801FCF
:10047C0014BF154395439D60DD681AF4001F14BF2B
:10048C002A4325EA0202DA6001366EE7032D22D0F8
:10049C00112D89D1CC68043486E71B4FBD4209D09D
:1004AC0012D8DFF870904D4504D009F580394D45D0
:1004BC007FF47AAF8C68C4B1012C0CBFC0F81080EB
:1004CC00C0F8148008246FE77545F3D06545F1D06A
:1004DC00DFF84490EBE7002466E7CC6864E7CC686F
:1004EC00083461E7CC680C345EE704245CE7002533
:1004FC00A7E70125A5E70225A3E700BF00040140FB
:10050C0000100240000801400000211000003110D2
:10051C0000003210000011100000221083681942F4
:10052C0014BF0120002070470AB101617047090413
:10053C00FBE700002DE9F341054608B901203CE03A
:10054C000368DB0710D42B689F075DD42B68190751
:10055C0000F194802B685A0700F1BE80E8690028EE
:10056C0040F02C81002028E08F4C636803F00C03D2
:10057C00042B07D0636803F00C03082B09D16368C4
:10058C00DE0306D523689C03DDD56B68002BDAD11E
:10059C00D4E76B68B3F5803F12D1236843F4803302
:1005AC002360FFF70FFE064623689803CBD4FFF7B2
:1005BC0009FE801B6428F7D9032002B0BDE8F08146
:1005CC009BB9236823F480332360236823F48023AE
:1005DC002360FFF7F7FD064623689903B3D5FFF7B1
:1005EC00F1FD801B6428F7D9E6E7B3F5A02F23684B
:1005FC0003D143F480232360CFE723F480332360BB
:10060C00236823F48023CBE7674C636813F00C0F4B
:10061C0007D0636803F00C03082B10D16368DA036E
:10062C000DD423689B0702D52B69012B86D1236837
:10063C006A6923F0F80343EAC203236086E72A6958
:10064C005A4B6AB101221A60FFF7BCFD06462368BB
:10065C009F07ECD4FFF7B6FD801B0228F7D9ABE758
:10066C001A60FFF7AFFD0646236898077FF56EAF5B
:10067C00FFF7A8FD801B0228F6D99DE7AA694A4C12
:10068C004B4BDAB101221A60FFF79CFD0646636AF8
:10069C009B070DD54FF4FA52464B1B68B3FBF2F394
:1006AC00019300BF019B5A1E0192002BF9D151E717
:1006BC00FFF788FD801B0228E9D97DE71A60FFF758
:1006CC0081FD0646636A9F077FF544AFFFF77AFD0D
:1006DC00801B0228F6D96FE7334CE369D80024D489
:1006EC000127E36943F08053E361E36903F080532E
:1006FC000093009B304E3368D90518D5EB68012B5D
:10070C0026D1236A43F001032362FFF75BFD41F21C
:10071C0088368046236A9B073FD5002F3FF41EAFD7
:10072C00E36923F08053E36118E70027E2E73368BD
:10073C0043F480733360FFF745FD80463368DA0578
:10074C00DCD4FFF73FFDA0EB08006428F6D933E7B3
:10075C00ABB9236A41F2883823F001032362236A80
:10076C0023F004032362FFF72DFD0646236A980746
:10077C00D3D5FFF727FD801B4045F7D91CE7052B88
:10078C00236A03D143F004032362BAE723F0010385
:10079C002362236A23F00403B6E7FFF713FDA0EBF3
:1007AC000800B042B6D907E70010024000004242F0
:1007BC008004424208000020007000402A4B5A6816
:1007CC001C4602F00C02082A3DD00023274E0228BA
:1007DC0033602BD1FFF7F6FC0746236899011FD431
:1007EC002B6AB3F5803F05D16268A96822F4003208
:1007FC000A436260696A62680B4322F47412134301
:10080C00636001233360FFF7DDFC054623689A0122
:10081C003FF5A8AEFFF7D6FC401B0228F6D9CBE675
:10082C00FFF7D0FCC01B0228D7D9C5E6FFF7CAFCDE
:10083C00054623689B017FF595AEFFF7C3FC401B73
:10084C000228F6D9B8E601283FF4B7AE58682B6AEF
:10085C0000F480329A427FF471AE6B6A00F470102F
:10086C00C01A18BF0120A8E60010024060004242E6
:10087C0030B5194B87B002AC03F11005224618684D
:10088C005968083303C2AB421446F7D101238DF8E3
:10089C000430022311498DF805304B6803F00C022B
:1008AC00082A17D1C3F3834206A80244DB0312F8CB
:1008BC00102C0CD54B680A48C3F34043504306AA8E
:1008CC00134413F8143CB0FBF3F007B030BD0548EB
:1008DC005043FAE70248F8E77C2800080010024071
:1008EC0000127A0000093D002DE9F0410D46044646
:1008FC0010B90120BDE8F081454A136803F00703E5
:10090C008B4229D321688E0731D4CA0744D4404A7C
:10091C00136803F007039D4267D322683D4D12F024
:10092C00040F6ED1130706D56B68226923F460534C
:10093C0043EAC2036B60FFF79BFF6B68364AC3F355
:10094C000313D35CD840354B1860354B1868FFF750
:10095C00F7FB0020BDE8F081136823F007030B437D
:10096C001360136803F007039942C2D1CAE7294BFD
:10097C0011F0040F1EBF5A6842F4E0625A60080777
:10098C0042BF5A6842F460525A605A68A06822F01A
:10099C00F00202435A60B8E762681E4E012A3368BF
:1009AC001BD113F4003FA4D0736841F2883823F0B4
:1009BC00030313437360FFF705FC07467368626813
:1009CC0003F00C03B3EB820FA1D0FFF7FBFBC01BB2
:1009DC004045F3D90320BDE8F081022A02D113F07F
:1009EC00007FE0E713F0020FDDE7136823F0070345
:1009FC002B431360136803F007039D427FF479AF18
:100A0C008BE76B68E16823F4E0630B436B6089E769
:100A1C0000200240001002408C2800080800002032
:100A2C0004000020044B054A5B68C3F30223D35C2B
:100A3C00034A1068D8407047001002409C280008F8
:100A4C0008000020044B054A5B68C3F3C223D35C47
:100A5C00034A1068D8407047001002409C280008D8
:100A6C00080000200368DA6822F49072DA605A6990
:100A7C0022F001025A61202380F83A3070470000BE
:100A8C0038B505460368C1681A69192422F4405226
:100A9C000A431A6182680069D9680243686921F4C3
:100AAC00B05121F00C0102430A43DA605A69A9697A
:100ABC0022F440720A435A610D4A934214D1FFF753
:100ACC00C1FF60436C686422A400B0FBF4F0B0FB7F
:100ADC00F2F402FB14031B013233B3FBF2F329686B
:100AEC0003EB04138B6038BDFFF79CFFE9E700BFF5
:100AFC0000380140F8B504460E4617461D462168DD
:100B0C000B6836EA030301D10020F8BD6B1CF7D04B
:100B1C0095B923680320DA6822F4D072DA605A6936
:100B2C0022F001025A61202384F8393084F83A30DB
:100B3C00002384F83830F8BDFFF744FBC01B854216
:100B4C00DDD2E6E710B5044640B390F8393003F037
:100B5C00FF021BB980F8382001F000FA2423226828
:100B6C0084F83930D368204623F40053D360FFF760
:100B7C0087FF236800201A6922F490421A615A698F
:100B8C0022F02A025A61DA6842F40052DA60202319
:100B9C00E06384F8393084F83A3010BD012010BD80
:100BAC002DE9F0411F4690F839300446202B0D46B4
:100BBC0090464ED1002949D0002A47D090F83830C1
:100BCC00012B46D0012380F838300023C363212346
:100BDC0080F83930FFF7F6FA0646A4F82480A4F81A
:100BEC002680E38C9BB26BB93B46324640212046B3
:100BFC00FFF780FFA8B9202384F8380084F8393037
:100C0C00BDE8F081E38C3246013B9BB2E384A368E0
:100C1C008021B3F5805F20463B460ED1FFF76AFF7B
:100C2C0010B10320BDE8F0812B882268C3F30803C0
:100C3C005360236943B90235D3E7FFF75BFF002804
:100C4C00EFD123682A785A600135CAE70120BDE844
:100C5C00F0810220BDE8F08190F83A30202B20D1B1
:100C6C00E9B1E2B190F83830012B1AD0C2858285F7
:100C7C0000232222C36380F83A2002688162D16883
:100C8C0080F8383041F48071D1605169184641F0D8
:100C9C0001015161D16841F02001D1607047012000
:100CAC00704702207047704790F83A3010B5222BED
:100CBC0036D183680169B3F5805F0268836A23D1FA
:100CCC005268E9B9C2F3080223F8022B8362C48D7F
:100CDC00013CA4B2C4858CB90368DA6822F0200206
:100CEC00DA60DA6822F48072DA605A6922F0010262
:100CFC005A61202380F83A3000F040FF002010BDEC
:100D0C00D2B223F8012BE1E721B9591C5268816258
:100D1C001A70DCE75268591C816202F07F02F7E717
:100D2C00022010BD70470000036870B51A680446B5
:100D3C001607D9685D6907D196065AD58D0658D520
:100D4C00BDE87040FFF7B0BF15F0010502D111F4FA
:100D5C00907F4ED0D30705D5CE0542BFE36B43F051
:100D6C000103E363500704D51DB1E36B43F00203A9
:100D7C00E363930704D51DB1E36B43F00403E36312
:100D8C00160704D51DB1E36B43F00803E363E36B73
:100D9C00002B66D0950604D5880602D52046FFF7B1
:100DAC0083FF236820465D69E26B110702D415F0BE
:100DBC0040051AD0FFF756FE23685A69520610D523
:100DCC005A69606B22F040025A6150B1254B436363
:100DDC00FFF77AFA002844D0606BBDE87040436B93
:100DEC0018472046FFF79EFF70BDFFF79BFFE5639A
:100DFC0070BD160627D50D0625D594F83920212A65
:100E0C002FD1A268B2F5805F226A17D11188C1F385
:100E1C0008015960216979B902322262E28C013AE7
:100E2C0092B2E284EAB9DA6822F08002DA60DA6817
:100E3C0042F04002DA6070BD0132EEE7511C2162D3
:100E4C0012785A60EAE750060BD54A0609D5DA68DB
:100E5C00204622F04002DA60202384F83930FFF774
:100E6C0022FF70BD750E000808B50023406AC385CB
:100E7C00C384FFF757FF08BD10222DE9F04188B05D
:100E8C000DEB0200002101F031F92E4BDFF8C08090
:100E9C009A692D4E42F010029A619A69404602F00E
:100EAC0010020092009A9A69F12142F020029A6194
:100EBC009A69002402F020020192019A9A69234F48
:100ECC0042F004029A619A69012502F0040202922E
:100EDC00029A9A6942F008029A619B69002203F017
:100EEC0008030393039BFFF71FFB002230460721E7
:100EFC00FFF71AFB4FF47C4304A93846049305947E
:100F0C000694FFF729FA3E2304A9384604930327D5
:100F1C0005940695FFF720FAF12304A940460493A3
:100F2C00059506940797FFF717FA072304A930468F
:100F3C000493059506940797FFF70EFA08B0BDE8E1
:100F4C00F08100BF00100240000C01400010014075
:100F5C00000801402DE9F04105460F460124134ECF
:100F6C00DFF84C80BC4201DDBDE8F081012210218C
:100F7C003046FFF7D9FA00231A46C8F800309542DC
:100F8C0010D20BB1C8F80020002210213046FFF718
:100F9C00CBFA002300BF01339D42FBD2C8F80030CE
:100FAC000134DFE700BF01230132E8E7000801400C
:100FBC00F400002007B501290A468DF8070004D07B
:100FCC00022909D003B05DF804FB0A2305480DF192
:100FDC000701FFF7E5FDF5E70A2301220DF10701F3
:100FEC000148F6E7140100205401002038B5012215
:100FFC0004460D460A482021FFF796FA012280216B
:10100C000748FFF791FA04210648FFF787FA0128F1
:10101C0005D129462046BDE83840FFF79BBF38BDB7
:10102C0000080140001001402DE9F0410122054665
:10103C000F4618482021FFF777FA01228021154826
:10104C00FFF772FA0124134EDFF84C80BC4201DD2D
:10105C00BDE8F081012240213046FFF765FA0023FC
:10106C001A46C8F80030954210D20BB1C8F80020CF
:10107C00002240213046FFF757FA002300BF01330E
:10108C009D42FBD2C8F800300134DFE700BF0123DA
:10109C000132E8E700080140F40000202DE9F0419E
:1010AC00012205460F4616480421FFF73DFA01249C
:1010BC00134EDFF85080BC4201DDBDE8F081012207
:1010CC0002213046FFF730FA00231A46C8F80030E8
:1010DC00954210D20BB1C8F80020002202213046F4
:1010EC00FFF722FA002300BF01339D42FBD2C8F860
:1010FC0000300134DFE700BF01230132E8E700BF15
:10110C00000C0140F400002038B5002204460D46C6
:10111C000A482021FFF708FA002280210748FFF730
:10112C0003FA02210648FFF7F9F9012805D12946EF
:10113C002046BDE83840FFF70DBF38BD0008014020
:10114C00001001402DE9F041002205460F461848D9
:10115C002021FFF7E9F9002280211548FFF7E4F977
:10116C000124134EDFF84C80BC4201DDBDE8F08158
:10117C00012240213046FFF7D7F900231A46C8F860
:10118C000030954210D20BB1C8F80020002240214B
:10119C003046FFF7C9F9002300BF01339D42FBD253
:1011AC00C8F800300134DFE700BF01230132E8E763
:1011BC0000080140F40000202DE9F0410022054612
:1011CC000F4616480421FFF7AFF90124134EDFF840
:1011DC005080BC4201DDBDE8F08101220221304685
:1011EC00FFF7A2F900231A46C8F80030954210D236
:1011FC000BB1C8F80020002202213046FFF794F909
:10120C00002300BF01339D42FBD2C8F800300134EB
:10121C00DFE700BF01230132E8E700BF000C01400B
:10122C00F4000020F8B50022202104464448FFF7C2
:10123C007BF9012280214248FFF776F9414F404E5D
:10124C00414D02213846FFF769F90128024625D0A5
:10125C004FF47A70FEF7BCFF3A4F394E3A4D0821E5
:10126C003846FFF75BF90128024632D04FF47A700A
:10127C00FEF7AEFF002204213448FFF755F9314E3A
:10128C00314D20213046FFF749F9012802463BD069
:10129C004FF47A70BDE8F840FEF79ABF1021304643
:1012AC00FFF742F900231A462B6094420DD203B18A
:1012BC002A60002210213046FFF736F9002300BFC8
:1012CC0001339C42FBD22B60BBE700BF01230132F0
:1012DC00EBE740213046FFF727F900231A462B6035
:1012EC0094420DD203B12A60002240213046FFF710
:1012FC001BF9002300BF01339C42FBD22B60AEE7ED
:10130C0000BF01230132EBE702211048FFF70CF973
:10131C0000231A462B6094420DD203B12A6000229E
:10132C0002210A48FFF700F9002300BF01339C4259
:10133C00FBD22B60A5E700BF01230132EBE700BF16
:10134C000008014000100140F4000020000C014096
:10135C0008B5C82141F27070FFF7F4FE4FF4FA7033
:10136C00FEF736FF4FF4FA5141F27070FFF796FE1C
:10137C004FF4FA70FEF72CFF962141F27070FFF7D4
:10138C0053FE4FF4FA70FEF723FF41F270704FF4E6
:10139C00FA51FFF711FFBDE808404FF4FA70FEF761
:1013AC0017BF08B54FF4FA5141F27070FFF776FE93
:1013BC004FF4FA70FEF70CFF4FF4FA7141F27070B3
:1013CC00FFF7C0FE4FF4FA70FEF702FF41F27070A7
:1013DC004FF4FA51FFF7F0FEBDE808404FF4FA70F5
:1013EC00FEF7F6BE10B5294C02212046FFF796F801
:1013FC00012839D04FF4FA70FEF7EAFE4FF4617110
:10140C0041F27070FFF79EFE4FF4FA70FEF7E0FEAB
:10141C00FFF7C7FF1D4C08212046FFF77FF8012876
:10142C0028D01A4C04212046FFF778F8012827D041
:10143C004FF4FA70FEF7CCFE40F2D6614FF4FA503E
:10144C00FFF780FE4FF4FA70FEF7C2FEFFF780FF45
:10145C004FF4FA70FEF7BCFE4FF4FA50FFF7E2FEC1
:10146C0067220B4B1A7010BD022141F27070FFF70E
:10147C004BFEB9E7022141F27070FFF7D5FDCAE7C8
:10148C00022141F27070FFF7B1FDCBE70010014073
:10149C00DF00002010B5254C02212046FFF73EF856
:1014AC00012836D04FF4FA70FEF792FE4FF4FA7121
:1014BC0041F27070FFF746FE4FF4FA70FEF788FEAB
:1014CC00FFF76FFF194C08212046FFF727F801287A
:1014DC0025D041F6105141F27070FFF787FD4FF4A3
:1014EC00FA70FEF775FE40F2A4614FF4FA50FFF764
:1014FC0029FE4FF4FA70FEF76BFEFFF729FF4FF44D
:10150C00FA70FEF765FEBDE810404FF4FA50FFF795
:10151C0089BE022141F27070FFF7F6FDBCE7022193
:10152C0041F27070FFF780FDCDE700BF0010014065
:10153C0010B5254C02212046FEF7F0FF012836D0CD
:10154C004FF4FA70FEF744FE4FF4FA7141F27070EA
:10155C00FFF7F8FD4FF4FA70FEF73AFEFFF721FFA4
:10156C00194C08212046FEF7D9FF012825D04FF44D
:10157C007A6141F27070FFF739FD4FF4FA70FEF7A3
:10158C0027FE40F2A4614FF4FA50FFF7DBFD4FF455
:10159C00FA70FEF71DFEFFF7DBFE4FF4FA70FEF754
:1015AC0017FEBDE810404FF4FA50FFF73BBE022186
:1015BC0041F27070FFF7A8FDBCE7022141F2707098
:1015CC00FFF732FDCDE700BF0010014010B5284CED
:1015DC0002212046FEF7A2FF012836D04FF4FA7004
:1015EC00FEF7F6FD4FF4FA7141F27070FFF7AAFDA9
:1015FC004FF4FA70FEF7ECFDFFF7D3FE1C4C0821FC
:10160C002046FEF78BFF012825D0194C04212046DB
:10161C00FEF784FF012824D04FF4FA70FEF7D8FDB2
:10162C00C8214FF4FA50FFF78DFD4FF4FA70FEF716
:10163C00CFFDFFF78DFE4FF4FA70FEF7C9FDBDE844
:10164C0010404FF4FA50FFF7EDBD022141F27070DB
:10165C00FFF75AFDBCE7022141F27070FFF7E4FC82
:10166C00CDE7022141F27070FFF7C0FCCEE700BF5E
:10167C000010014010B5244C02212046FEF74EFF0D
:10168C00012835D04FF4FA70FEF7A2FD4FF4FA7131
:10169C0041F27070FFF756FD4FF4FA70FEF798FDAB
:1016AC00FFF77FFE184C08212046FEF737FF012874
:1016BC0024D041F6105141F27070FFF797FC4FF4B3
:1016CC00FA70FEF785FDC8214FF4FA50FFF73AFD8A
:1016DC004FF4FA70FEF77CFDFFF73AFE4FF4FA7008
:1016EC00FEF776FDBDE810404FF4FA50FFF79ABDB7
:1016FC00022141F27070FFF707FDBDE7022141F2B4
:10170C007070FFF791FCCEE70010014010B5244C2F
:10171C0002212046FEF702FF012835D04FF4FA7063
:10172C00FEF756FD4FF4FA7141F27070FFF70AFDA7
:10173C004FF4FA70FEF74CFDFFF733FE184C0821FE
:10174C002046FEF7EBFE012824D04FF47A6141F2DB
:10175C007070FFF74BFC4FF4FA70FEF739FDC8219F
:10176C004FF4FA50FFF7EEFC4FF4FA70FEF730FD31
:10177C00FFF7EEFD4FF4FA70FEF72AFDBDE81040BE
:10178C004FF4FA50FFF74EBD022141F27070FFF793
:10179C00BBFCBDE7022141F27070FFF745FCCEE7C0
:1017AC000010014010B5294C04212046FEF7B6FE6E
:1017BC00012839D04FF4FA70FEF70AFD40F2D661D9
:1017CC0041F27070FFF7BEFC4FF4FA70FEF700FDAB
:1017DC00FFF7BEFD1D4C08212046FEF79FFE012899
:1017EC0028D01A4C02212046FEF798FE012827D05B
:1017FC004FF4FA70FEF7ECFC4FF461714FF4FA50B1
:10180C00FFF7A0FC4FF4FA70FEF7E2FCFFF7C9FDFE
:10181C004FF4FA70FEF7DCFC4FF4FA50FFF702FDC0
:10182C0067220B4B1A7010BD022141F27070FFF74A
:10183C00DDFBB9E7022141F27070FFF7F5FBCAE757
:10184C00022141F27070FFF75FFCCBE70010014002
:10185C00DF00002010B541F6105142F6E060FFF7B2
:10186C00C5FB4FF4FA70FEF7B3FC40F2A46141F2F1
:10187C007070FFF767FC4FF4FA70FEF7A9FCFFF7E6
:10188C0090FD1A4C08212046FEF748FE012820D076
:10189C00164C02212046FEF741FE01281FD04FF4C2
:1018AC00FA70FEF795FC4FF448714FF4FA50FFF7BD
:1018BC0049FC4FF4FA70FEF78BFCFFF749FD4FF42F
:1018CC00FA70FEF785FCBDE810404FF4FA50FFF7B4
:1018DC00A9BC022141F27070FFF7A6FBD2E70221EE
:1018EC0041F27070FFF710FCD3E700BF001001400D
:1018FC0010B540F6C87142F6E060FFF777FB4FF485
:10190C00FA70FEF765FC40F2A46141F27070FFF7CB
:10191C0019FC4FF4FA70FEF75BFCFFF742FD1A4C12
:10192C0008212046FEF7FAFD012820D0164C022192
:10193C002046FEF7F3FD01281FD04FF4FA70FEF796
:10194C0047FC4FF448714FF4FA50FFF7FBFB4FF490
:10195C00FA70FEF73DFCFFF7FBFC4FF4FA70FEF754
:10196C0037FCBDE810404FF4FA50FFF75BBC022186
:10197C0041F27070FFF758FBD2E7022141F2707010
:10198C00FFF7C2FBD3E700BF0010014010B5284C95
:10199C0004212046FEF7C2FD012836D04FF4FA7020
:1019AC00FEF716FCC82141F27070FFF7CBFB4FF429
:1019BC00FA70FEF70DFCFFF7CBFC1D4C08212046FE
:1019CC00FEF7ACFD012826D0194C02212046FEF76B
:1019DC00A5FD012825D04FF4FA70FEF7F9FB4FF462
:1019EC0048714FF4FA50FFF7ADFB4FF4FA70FEF765
:1019FC00EFFBFFF7D6FC4FF4FA70FEF7E9FBBDE8FE
:101A0C0010404FF4FA50FFF70DBC022141F27070F8
:101A1C00FFF7ECFABCE7022141F27070FFF704FB10
:101A2C00CCE7022141F27070FFF76EFBCDE700BFEF
:101A3C000010014010B541F6105142F6E060FFF77E
:101A4C00D5FA4FF4FA70FEF7C3FBC82141F270705F
:101A5C00FFF778FB4FF4FA70FEF7BAFBFFF7A1FC27
:101A6C00194C08212046FEF759FD012820D0164CB0
:101A7C0002212046FEF752FD01281FD04FF4FA70C8
:101A8C00FEF7A6FB4FF448714FF4FA50FFF75AFBE0
:101A9C004FF4FA70FEF79CFBFFF75AFC4FF4FA7008
:101AAC00FEF796FBBDE810404FF4FA50FFF7BABBB7
:101ABC00022141F27070FFF7B7FAD2E7022141F22E
:101ACC007070FFF721FBD3E70010014010B540F612
:101ADC00C87142F6E060FFF789FA4FF4FA70FEF72E
:101AEC0077FBC82141F27070FFF72CFB4FF4FA70B2
:101AFC00FEF76EFBFFF755FC194C08212046FEF74C
:101B0C000DFD012820D0164C02212046FEF706FDC3
:101B1C0001281FD04FF4FA70FEF75AFB4FF44871AE
:101B2C004FF4FA50FFF70EFB4FF4FA70FEF750FB30
:101B3C00FFF70EFC4FF4FA70FEF74AFBBDE81040BD
:101B4C004FF4FA50FFF76EBB022141F27070FFF7B1
:101B5C006BFAD2E7022141F27070FFF7D5FAD3E7A6
:101B6C000010014010B51446012392B20248FFF751
:101B7C0017F8204610BD00BF140100200368274A47
:101B8C0013B5934223D1264B264A18780D2819D128
:101B9C00012025490870002111701878234B012170
:101BAC001870FFF707FA00232148009303681C49BB
:101BBC001A68009201225B680093009BFFF74CF8B7
:101BCC0002B010BD11784C1C14705854E5E7194A3A
:101BDC009342F5D1184C194B21780D2918D10121BC
:101BEC00174A117000221A7002212078FFF7E2F9CF
:101BFC0001212078FFF7DEF90023124801930368D6
:101C0C000D491A6801925B6801220193019BD5E78B
:101C1C001A78501C1870A154E6E700BF0038014038
:101C2C00F90000208C0000208E000020DF00002036
:101C3C001401002000440040C80000208D0000204A
:101C4C008F0000205401002010B590B028220021F4
:101C5C0006A800F04BFA0021142201A800F046FA65
:101C6C004FF480330122022407930E934FF4E013B8
:101C7C0006A806920A920F930D94FEF75BFC0F23B5
:101C8C004FF4806201930023214601A80294039330
:101C9C0004920593FEF728FE10B010BD83B5FEF735
:101CAC0073FAFFF7D1FFFFF7E7F800F03BF900F00C
:101CBC001DF901223C481146FEF736FC01223B4837
:101CCC001146FEF731FC3A4B3A4E186800233A4F56
:101CDC0019463A4C02223A4D806800F00FFA022263
:101CEC0031463846FEF7B8FF214601222846FEF75A
:101CFC00B3FF00233A680093116800915268337067
:101D0C000092009A2A68019311680191526823701D
:101D1C000192019A2B4C2378362B35D010D8322BCC
:101D2C0029D007D8302B1ED0312B21D00120FEF723
:101D3C004FFAF0E7342B24D020D9FFF7F9FBF5E765
:101D4C00392B27D006D8372B21D0382BEED1FFF7E3
:101D5C001DFEEBE7622B20D0632B21D0612BE5D14C
:101D6C00FFF768FEE2E74FF4FA50FFF75BFADDE7A6
:101D7C00FFF738FBDAE7FFF729FCD7E7FFF78AFB19
:101D8C00D4E7FFF777FCD1E7FFF7C0FCCEE7FFF70E
:101D9C0009FDCBE7FFF75EFDC8E7FFF7A9FDC5E737
:101DAC00FFF794FEC2E700BF00080140000C0140A1
:101DBC000C000020F900002014010020C8000020B5
:101DCC0054010020DF000020704700000E4B82B051
:101DDC009A6942F001029A619A6902F0010200923A
:101DEC00009ADA6942F08052DA61DB69074A03F043
:101DFC0080530193019B536823F0E06343F000731D
:101E0C00536002B0704700BF001002400000014058
:101E1C007047FEE7FEE7FEE7FEE770477047704746
:101E2C00FEF7C4B90148FEF77FBF00BF14010020C4
:101E3C000148FEF779BF00BF5401002070B50E4673
:101E4C0015460C46A31B9D4201DC284670BDAFF322
:101E5C00008004F8010BF5E708B50A4B0246196837
:101E6C0009B9094919606946186802448A4206D9B9
:101E7C0000F012F90C2303604FF0FF3008BD1A601C
:101E8C0008BD00BF90000020980100204FF0FF30EB
:101E9C0070474FF4005300204B6070470020704790
:101EAC000F4B1A6842F001021A6059680D4A0A4039
:101EBC005A601A6822F0847222F480321A601A680E
:101ECC0022F480221A605A6822F4FE025A604FF4FF
:101EDC001F029A604FF00062034B9A60704700BF7C
:101EEC00001002400000FFF800ED00E008B54FF4D0
:101EFC00165E0A480A4B0C2280E808400023426117
:101F0C008360C36003618361C361FEF71BFE18B17C
:101F1C00BDE80840FFF758BF08BD00BF1401002002
:101F2C000038014008B54FF4165E0A480A4B0C22E3
:101F3C0080E80840002342618360C36003618361D1
:101F4C00C361FEF7FFFD18B1BDE80840FFF73CBFC9
:101F5C0008BD00BF5401002000440040102210B501
:101F6C00044688B00DEB0200002100F0BFF8236896
:101F7C00324A934231D1324B04A99A69314842F426
:101F8C0080429A619A69002402F480420092009A7D
:101F9C009A6942F004029A619B6903F0040301936D
:101FAC00019B4FF4007304930223059303230793BF
:101FBC00FEF7D2F94FF4806304A9224804930594E8
:101FCC000694FEF7C9F9252022462146FEF724F98E
:101FDC002520FEF755F908B010BD1B4A9342FAD1E3
:101FEC00174B04A9DA69174842F40032DA61DA694E
:101FFC00002402F400320292029A9A6942F004021E
:10200C009A619B6903F004030393039B04230493D9
:10201C000223059303230793FEF79EF9082304A9D3
:10202C000848049305940694FEF796F92620224658
:10203C002146FEF7F1F82620CBE700BF003801401F
:10204C00001002400008014000440040002103E061
:10205C000B4B5B58435004310A480B4B42189A42C5
:10206C00F6D30A4A02E0002342F8043B084B9A429A
:10207C00F9D3FFF715FF00F015F8FFF70FFE7047C7
:10208C0010290008000000207000002070000020C3
:10209C0098010020FEE70000014B1868704700BF54
:1020AC000C00002070B500250C4E0D4CA41BA41088
:1020BC00A54209D100F0D0FB00250A4E0A4CA41B06
:1020CC00A410A54205D170BD56F8253098470135AE
:1020DC00EEE756F8253098470135F2E70829000855
:1020EC0008290008082900080C29000803460244A6
:1020FC00934200D1704703F8011BF9E72DE9F74330
:10210C001D46514B04461E680F46904626B1B369D6
:10211C0013B9304600F092F94C4B9C4252D1746882
:10212C00B8F1020F06D0B8F1010F00F28980002D32
:10213C00C0F286802146304600F016F9616B41B141
:10214C0004F14403994202D0304600F02DFA0023EA
:10215C0063630023A3616360A3891B0603D5216914
:10216C00304600F021FAA389B8F1020F23F44A6338
:10217C0023F00303A3815DD001AB6A4621463046B0
:10218C0000F0E6F9A3891843A0812DBB009D2846D9
:10219C0000F002FA074600284ED1DDF80090A94560
:1021AC003CD14FF0FF30A38943F00203A3810023FD
:1021BC00A36004F14703236023610123636103B02F
:1021CC00BDE8F083224B9C4201D1B468A8E7214BB7
:1021DC009C4208BFF468A3E7002FD8D0B36913B9A9
:1021EC00304600F02BF9B8F1010F08BFA389276026
:1021FC0004BF43F00103A381A389276113F00800F6
:10220C0065611BD013F001004FF000031FBF6D423E
:10221C00A360A561184608BFA560D0E7484600F04A
:10222C00BBF907460028BCD0A3894D4643F0800378
:10223C00A381D3E70020B6E7A946F5E7A060BEE787
:10224C004FF0FF30BBE700BF0C000020C82800088F
:10225C00E8280008A82800088A892DE9F0410546DD
:10226C0010070C465AD44B68002B05DC0B6C002B6A
:10227C0002DC0020BDE8F081E66A002EF9D00023D4
:10228C0012F480522F682B6033D0606DA3895A07EB
:10229C0005D56368C01A636B0BB1236CC01A00239D
:1022AC000246E66A216A2846B047431CA38906D138
:1022BC0029681D294BD82B4ACA40D60747D500227E
:1022CC0062602269D904226004D5421C01D12B68BA
:1022DC0003B96065616B2F600029CAD004F1440317
:1022EC00994202D0284600F05FF900206063BDE8F7
:1022FC00F081216A01232846B047411CC6D12B68C6
:10230C00002BC3D01D2B01D0162B01D12F60B0E7B1
:10231C00A38943F04003A381BDE8F0810F69002F2E
:10232C00A7D0930718BF00230E6808BF4B69A6EB14
:10233C0007080F608B60B8F1000F9ADD43463A46F0
:10234C00216A2846A66AB047002807DCA38943F017
:10235C004003A3814FF0FF30BDE8F0810744A8EBA8
:10236C000008E8E70100402038B50B6905460C462B
:10237C00DBB118B183690BB900F060F80C4B9C42CF
:10238C0009D16C68B4F90C307BB121462846BDE804
:10239C003840FFF761BF074B9C4201D1AC68F1E7B5
:1023AC00054B9C4208BFEC68ECE7002038BD00BF31
:1023BC00C8280008E8280008A8280008014900F0EF
:1023CC00A9B800BF75230008002310B504460360AC
:1023DC004360836081814366C28103614361836191
:1023EC00194608225C30FFF781FE054B24626362BC
:1023FC00044BA362044BE362044B236310BD00BF88
:10240C00292700084B27000883270008A727000866
:10241C0070B568254A1E55430E4605F1740100F04F
:10242C000FF9044640B1002180E842000C30A06056
:10243C0005F16802FFF75AFE204670BD836910B59E
:10244C00044633BB8364C3640365124B124A1B6896
:10245C008262984204BF0123836100F01FF8606020
:10246C00204600F01BF8A060204600F017F8002270
:10247C00E06004216068FFF7A7FF01220921A06832
:10248C00FFF7A2FF02221221E068FFF79DFF012354
:10249C00A36110BDA4280008C9230008F8B51C4B83
:1024AC0007461E68B36913B93046FFF7C7FF4836B5
:1024BC00B4687368013B03D5336833B13668F7E70A
:1024CC00B4F90C506DB16834F4E704213846FFF7C9
:1024DC009FFF30600028F1D10C2304463B6020465E
:1024EC00F8BD4FF6FF73E38101236566A381256078
:1024FC00A560656025616561A5610822294604F126
:10250C005C00FFF7F3FD6563A563A564E564E6E78E
:10251C00A42800082DE9F84380468946002600F1DE
:10252C00480414B93046BDE8F883A5686768013FD4
:10253C0001D52468F5E7AB89012B07D9B5F90E3025
:10254C00013303D029464046C84706436835EEE7B9
:10255C0070B50E46B1F90E1090B0002914461D4608
:10256C0007DA00232B60B3891A0610D44FF480636A
:10257C000EE001AA00F038F90028F2DB029A02F40E
:10258C007042A2F500535A425A412A60EEE74023AA
:10259C000020236010B070BD024B0146186800F09B
:1025AC004FB800BF0C00002038B50546002943D0B9
:1025BC0051F8043C0C1F002BB8BFE41800F038F99C
:1025CC001E4A1368104633B9636014602846BDE890
:1025DC00384000F02EB9A3420BD9216862189342FF
:1025EC0001BF1A685B685218226063600460EDE7F3
:1025FC0013465A680AB1A242FAD919685818A0426F
:10260C000BD120680144581882421960DED1106841
:10261C005268014419605A60D8E702D90C232B6028
:10262C00D4E7206821188A4201BF11685268091842
:10263C00216062605C60C9E738BD00BF9400002077
:10264C0070B5CD1C25F0030508350C2D38BF0C25B5
:10265C00002D064601DBA94203D90C233360002070
:10266C0070BD00F0E5F8234A1468214691B9224C5C
:10267C0023681BB9304600F041F8206029463046EB
:10268C0000F03CF8431C26D10C233046336000F09C
:10269C00D0F8E4E70B685B1B1AD40B2B0FD90B603B
:1026AC00CC18CD50304600F0C4F804F10B00231DBB
:1026BC0020F00700C31A1BD05A42E25070BD8C4266
:1026CC000BBF63684B681360636018BF0C46E9E787
:1026DC000C464968CAE7C41C24F00304A04205D088
:1026EC00211A304600F00AF80130CDD02560D9E728
:1026FC0070BD00BF940000209800002038B5002366
:10270C00054C054608462360FFF7A6FB431C02D187
:10271C00236803B12B6038BD9401002010B50C4622
:10272C00B1F90E1000F086F80028ABBF636DA389D9
:10273C001B1823F48053ACBF6365A38110BD2DE936
:10274C00F0411F468B890546DB050C46164605D520
:10275C0002230022B1F90E1000F058F8A38932467A
:10276C0023F48053A381B4F90E103B462846BDE8F0
:10277C00F04100F017B810B50C46B1F90E1000F08E
:10278C0045F8431CA38915BF606523F4805343F4BB
:10279C008053A38118BFA38110BDB1F90E1000F0B6
:1027AC0013B8000038B50546084611460022054C02
:1027BC0022601A46FFF7D6F9431C02D1236803B1F5
:1027CC002B6038BD9401002038B50023054C05461C
:1027DC0008462360FFF75AFB431C02D1236803B160
:1027EC002B6038BD9401002038B50023064C0546FB
:1027FC00084611462360FFF74CFB431C02D12368AB
:10280C0003B12B6038BD00BF9401002038B50546DC
:10281C00084611460022054C22601A46FFF73EFB83
:10282C00431C02D1236803B12B6038BD94010020F6
:10283C007047704738B50546084611460022054CCE
:10284C0022601A46FFF7FAFA431C02D1236803B13F
:10285C002B6038BD94010020F8B500BFF8BC08BC53
:10286C009E467047F8B500BFF8BC08BC9E46704742
:10287C0002030405060708090A0B0C0D0E0F1010B5
:10288C000000000000000000010203040607080914
:10289C0000000000010203041000002000000000F2
:1028AC00000000000000000000000000000000001C
:1028BC00000000000000000000000000000000000C
:1028CC0000000000000000000000000000000000FC
:1028DC0000000000000000000000000000000000EC
:1028EC0000000000000000000000000000000000DC
:0C28FC00000000000000000000000000D0
:042908003101000891
:04290C000D010008B1
:1029100001000000100000000024F400100000205E
:1029200000000000C8280008E8280008A8280008BF
:102930000000000000000000000000000000000097
:102940000000000000000000000000000000000087
:102950000000000000000000000000000000000077
:102960000000000000000000000000000000000067
:102970000000000000000000000000000000000057
:040000050800205976
:00000001FF
