:020000040800F2
:1000000000500020E1100008B90F0008BB0F0008E5
:10001000BD0F0008BF0F0008C10F0008000000005E
:10002000000000000000000000000000C30F0008F6
:10003000C50F000800000000C70F0008C90F000826
:1000400029110008291100082911000829110008A8
:100050002911000829110008291100082911000898
:100060002911000829110008291100082911000888
:100070002911000829110008291100082911000878
:100080002911000829110008291100082911000868
:100090002911000829110008291100082911000858
:1000A0002911000829110008291100082911000848
:1000B0002911000829110008291100082911000838
:1000C0002911000829110008291100082911000828
:1000D0002911000829110008CD0F00082911000876
:1000E000291100082911000829110008000000004A
:1000F0000000000000000000000000000000000000
:0C01000000000000000000005FF808F1A3
:10010C0010B5054C237833B9044B13B10448AFF345
:10011C0000800123237010BD0C00002000000000A3
:10012C008411000808B5034B1BB103490348AFF316
:10013C00008008BD000000001000002084110008A1
:10014C0038B50E4B054618784FF47A73B3FBF0F3C1
:10015C000B4A1068B0FBF3F000F0A0F8044658B955
:10016C000F2D09D8024629464FF0FF3000F054F805
:10017C00044B20461D6038BD012038BD0000002016
:10018C000800002004000020074A08B5136803206B
:10019C0043F01003136000F02DF80020FFF7D0FFA0
:1001AC0000F0E2FE002008BD00200240034A044B90
:1001BC0011681B780B441360704700BF28000020A7
:1001CC0000000020014B1868704700BF2800002079
:1001DC0038B50446FFF7F6FF0546631C1EBF044BFB
:1001EC001B78E418FFF7EEFF401B8442FAD838BDA9
:1001FC0000000020074A0002D36800F4E06023F4FA
:10020C00E0631B041B0C43F0BF6343F40033034354
:10021C00D360704700ED00E0174B30B5DC68C4F3D9
:10022C000224C4F10703251D042B28BF0423062D2B
:10023C004FF0010598BF002405FA03F303F1FF33D7
:10024C0088BF033C1940A14005FA04F4013C22404C
:10025C00002842EA01024FEA0212A9BF00F16040F5
:10026C00064BD2B200F56140BBBF00F00F00D2B21A
:10027C0080F800231A5430BD00ED00E014ED00E0CE
:10028C00002808DB0123420900F01F0003FA00F0EC
:10029C00014B43F82200704700E100E00138B0F157
:1002AC00807F0AD2F021064B064A586082F8231050
:1002BC000020072298601A6070470120704700BF29
:1002CC0010E000E000ED00E090F8213010B5022BBA
:1002DC0003D004238363012010BD03681A6822F045
:1002EC000E021A601A6822F001021A60184A934230
:1002FC001FD0143293421ED0143293421DD01432AC
:10030C0093421DD0143293421DD0143293420CBF31
:10031C004FF480134FF080730E4A00245360012376
:10032C0080F82130436B80F820407BB19847204601
:10033C0010BD0123F0E71023EEE74FF48073EBE7D9
:10034C004FF48053E8E74FF48033E5E7184610BDCF
:10035C0008000240000002402DE9F74F0024264619
:10036C00664BDFF8A8E1DFF8A8C10A6832FA06F597
:10037C0002D103B0BDE8F08F4FF0010808FA06F87F
:10038C0002EA080290457FD14D68122D00F0AA8038
:10039C0000F28380022D00F0A28077D8002D00F0AF
:1003AC008980012D00F099804FF00F09FF2A93BF2F
:1003BC00824606F18045083DD0F800B092BFB500EA
:1003CC00D0F804B0AD0009FA05F82BEA080804FAD5
:1003DC0005F588BF00F1040A48EA0505CAF8005083
:1003EC00D1F804A01AF0805F4ED0454D444FAD6952
:1003FC0026F0030845F00105BD61BD6908F1804890
:10040C0005F00105019508F5803806F0030B019DF8
:10041C004FEA8B0BD8F8085009FA0BF925EA0909B1
:10042C00384DA84263D005F58065A84261D005F52A
:10043C008065A8425FD005F58065A8420CBF0325F6
:10044C00042505FA0BF545EA0905C8F808501D689E
:10045C001AF4803F14BF154395431D605D681AF470
:10046C00003F14BF154395435D609D681AF4801FCF
:10047C0014BF154395439D60DD681AF4001F14BF2B
:10048C002A4325EA0202DA6001366EE7032D22D0F8
:10049C00112D89D1CC68043486E71B4FBD4209D09D
:1004AC0012D8DFF870904D4504D009F580394D45D0
:1004BC007FF47AAF8C68C4B1012C0CBFC0F81080EB
:1004CC00C0F8148008246FE77545F3D06545F1D06A
:1004DC00DFF84490EBE7002466E7CC6864E7CC686F
:1004EC00083461E7CC680C345EE704245CE7002533
:1004FC00A7E70125A5E70225A3E700BF00040140FB
:10050C0000100240000801400000211000003110D2
:10051C000000321000001110000022100AB101611D
:10052C0070470904FBE700002DE9F341054608B9C3
:10053C0001203CE00368DB0710D42B689F075DD4D7
:10054C002B68190700F194802B685A0700F1BE80C4
:10055C00E869002840F02C81002028E08F4C63686B
:10056C0003F00C03042B07D0636803F00C03082B77
:10057C0009D16368DE0306D523689C03DDD56B685F
:10058C00002BDAD1D4E76B68B3F5803F12D1236826
:10059C0043F480332360FFF715FE06462368980367
:1005AC00CBD4FFF70FFE801B6428F7D9032002B0D1
:1005BC00BDE8F0819BB9236823F480332360236862
:1005CC0023F480232360FFF7FDFD0646236899037F
:1005DC00B3D5FFF7F7FD801B6428F7D9E6E7B3F531
:1005EC00A02F236803D143F480232360CFE723F4A7
:1005FC0080332360236823F48023CBE7674C636844
:10060C0013F00C0F07D0636803F00C03082B10D108
:10061C006368DA030DD423689B0702D52B69012B81
:10062C0086D123686A6923F0F80343EAC203236086
:10063C0086E72A695A4B6AB101221A60FFF7C2FD9C
:10064C00064623689F07ECD4FFF7BCFD801B0228ED
:10065C00F7D9ABE71A60FFF7B5FD06462368980794
:10066C007FF56EAFFFF7AEFD801B0228F6D99DE734
:10067C00AA694A4C4B4BDAB101221A60FFF7A2FD72
:10068C000646636A9B070DD54FF4FA52464B1B681E
:10069C00B3FBF2F3019300BF019B5A1E0192002B96
:1006AC00F9D151E7FFF78EFD801B0228E9D97DE7D0
:1006BC001A60FFF787FD0646636A9F077FF544AF14
:1006CC00FFF780FD801B0228F6D96FE7334CE369F6
:1006DC00D80024D40127E36943F08053E361E36934
:1006EC0003F080530093009B304E3368D90518D526
:1006FC00EB68012B26D1236A43F001032362FFF739
:10070C0061FD41F288368046236A9B073FD5002F56
:10071C003FF41EAFE36923F08053E36118E7002731
:10072C00E2E7336843F480733360FFF74BFD804698
:10073C003368DA05DCD4FFF745FDA0EB080064282C
:10074C00F6D933E7ABB9236A41F2883823F00103B9
:10075C002362236A23F004032362FFF733FD06466A
:10076C00236A9807D3D5FFF72DFD801B4045F7D999
:10077C001CE7052B236A03D143F004032362BAE779
:10078C0023F001032362236A23F00403B6E7FFF787
:10079C0019FDA0EB0800B042B6D907E700100240E3
:1007AC0000004242800442420800002000700040D9
:1007BC002A4B5A681C4602F00C02082A3DD0002332
:1007CC00274E022833602BD1FFF7FCFC0746236829
:1007DC0099011FD42B6AB3F5803F05D16268A968D3
:1007EC0022F400320A436260696A62680B4322F4A5
:1007FC0074121343636001233360FFF7E3FC054677
:10080C0023689A013FF5A8AEFFF7DCFC401B0228D9
:10081C00F6D9CBE6FFF7D6FCC01B0228D7D9C5E624
:10082C00FFF7D0FC054623689B017FF595AEFFF7DB
:10083C00C9FC401B0228F6D9B8E601283FF4B7AE34
:10084C0058682B6A00F480329A427FF471AE6B6A5E
:10085C0000F47010C01A18BF0120A8E60010024066
:10086C006000424230B5194B87B002AC03F1100561
:10087C00224618685968083303C2AB421446F7D1B4
:10088C0001238DF80430022311498DF805304B6893
:10089C0003F00C02082A17D1C3F3834206A80244C2
:1008AC00DB0312F8102C0CD54B680A48C3F34043F9
:1008BC00504306AA134413F8143CB0FBF3F007B0F2
:1008CC0030BD05485043FAE70248F8E79C11000890
:1008DC000010024000127A0000093D002DE9F041A1
:1008EC000D46044610B90120BDE8F081454A136855
:1008FC0003F007038B4229D321688E0731D4CA0732
:10090C0044D4404A136803F007039D4267D322681E
:10091C003D4D12F0040F6ED1130706D56B6822699A
:10092C0023F4605343EAC2036B60FFF79BFF6B68D1
:10093C00364AC3F30313D35CD840354B1860354BA0
:10094C001868FFF7FDFB0020BDE8F081136823F069
:10095C0007030B431360136803F007039942C2D1DA
:10096C00CAE7294B11F0040F1EBF5A6842F4E0622B
:10097C005A60080742BF5A6842F460525A605A687B
:10098C00A06822F0F00202435A60B8E762681E4E7B
:10099C00012A33681BD113F4003FA4D0736841F2D1
:1009AC00883823F0030313437360FFF70BFC0746EF
:1009BC007368626803F00C03B3EB820FA1D0FFF7EE
:1009CC0001FCC01B4045F3D90320BDE8F081022A8D
:1009DC0002D113F0007FE0E713F0020FDDE713689C
:1009EC0023F007032B431360136803F007039D42A6
:1009FC007FF479AF8BE76B68E16823F4E0630B431A
:100A0C006B6089E70020024000100240AC11000826
:100A1C000800002004000020044B054A5B68C3F367
:100A2C000223D35C034A1068D84070470010024080
:100A3C00BC11000808000020044B054A5B68C3F396
:100A4C00C223D35C034A1068D840704700100240A0
:100A5C00BC110008080000200368DA6822F49072C8
:100A6C00DA605A6922F001025A61202380F83A3088
:100A7C007047000038B505460368C1681A69192427
:100A8C0022F440520A431A6182680069D968024311
:100A9C00686921F4B05121F00C0102430A43DA6079
:100AAC005A69A96922F440720A435A610D4A934269
:100ABC0014D1FFF7C1FF60436C686422A400B0FB43
:100ACC00F4F0B0FBF2F402FB14031B013233B3FB62
:100ADC00F2F3296803EB04138B6038BDFFF79CFF1E
:100AEC00E9E700BF0038014010B5044640B390F868
:100AFC00393003F0FF021BB980F8382000F0A8FA57
:100B0C002423226884F83930D368204623F4005318
:100B1C00D360FFF7AFFF236800201A6922F49042DC
:100B2C001A615A6922F02A025A61DA6842F40052B8
:100B3C00DA602023E06384F8393084F83A3010BD51
:100B4C00012010BD7047704790F83A3010B5222B39
:100B5C0036D183680169B3F5805F0268836A23D15B
:100B6C005268E9B9C2F3080223F8022B8362C48DE0
:100B7C00013CA4B2C4858CB90368DA6822F0200267
:100B8C00DA60DA6822F48072DA605A6922F00102C3
:100B9C005A61202380F83A30FFF7D5FF002010BDB2
:100BAC00D2B223F8012BE1E721B9591C52688162BA
:100BBC001A70DCE75268591C816202F07F02F7E779
:100BCC00022010BD70470000036870B51A68044617
:100BDC001607D9685D6907D196065AD58D0658D582
:100BEC00BDE87040FFF7B0BF15F0010502D111F45C
:100BFC00907F4ED0D30705D5CE0542BFE36B43F0B3
:100C0C000103E363500704D51DB1E36B43F002030A
:100C1C00E363930704D51DB1E36B43F00403E36373
:100C2C00160704D51DB1E36B43F00803E363E36BD4
:100C3C00002B66D0950604D5880602D52046FFF712
:100C4C0083FF236820465D69E26B110702D415F01F
:100C5C0040051AD0FFF700FF23685A69520610D5D9
:100C6C005A69606B22F040025A6150B1254B4363C4
:100C7C00FFF72AFB002844D0606BBDE87040436B43
:100C8C0018472046FFF79EFF70BDFFF79BFFE563FB
:100C9C0070BD160627D50D0625D594F83920212AC6
:100CAC002FD1A268B2F5805F226A17D11188C1F3E7
:100CBC0008015960216979B902322262E28C013A49
:100CCC0092B2E284EAB9DA6822F08002DA60DA6879
:100CDC0042F04002DA6070BD0132EEE7511C216235
:100CEC0012785A60EAE750060BD54A0609D5DA683D
:100CFC00204622F04002DA60202384F83930FFF7D6
:100D0C0021FF70BD150D000808B50023406AC3858E
:100D1C00C384FFF757FF08BD10222DE9F04188B0BE
:100D2C000DEB0200002100F01FFA294BDFF8AC801C
:100D3C009A69284E42F020029A619A69404602F064
:100D4C0020020092009A9A69F12142F010029A61F5
:100D5C009A69002402F010020192019A9A69012505
:100D6C0042F004029A619A69032702F0040202928B
:100D7C00029A9A6942F008029A619B69002203F078
:100D8C0008030393039BFFF7C9FB0022304607219E
:100D9C00FFF7C4FB3E2304A90F4804930594069562
:100DAC00FFF7DAFAF12304A940460493059506945B
:100DBC000797FFF7D1FA072304A93046049305954A
:100DCC0006940797FFF7C8FA08B0BDE8F08100BF9A
:100DDC0000100240000C01400010014000080140CE
:100DEC002DE9F0410122202106461748FFF796FB1A
:100DFC00012280211448FFF791FB40F2A7344FF0F9
:100E0C000008114F012240213846FFF787FB0022D2
:100E1C0013460E4DC5F800809E4210D202B12B60D5
:100E2C00002240213846FFF779FB002300BF013335
:100E3C009E42FBD2013C2B60E4D1BDE8F08100BFA7
:100E4C0001220133E8E700BF0008014064000020E4
:100E5C002DE9F0410022202106461748FFF75EFBE2
:100E6C00002280211448FFF759FB40F2A7344FF0C1
:100E7C000008114F012240213846FFF74FFB00229A
:100E8C0013460E4DC5F800809E4210D202B12B6065
:100E9C00002240213846FFF741FB002300BF0133FD
:100EAC009E42FBD2013C2B60E4D1BDE8F08100BF37
:100EBC0001220133E8E700BF000801406400002074
:100ECC0010B590B02822002106A800F04DF90021A1
:100EDC00142201A800F048F94FF4803301220224B7
:100EEC0007930E934FF4E01306A806920A920F9301
:100EFC000D94FFF719FB0F234FF48062019300232D
:100F0C00214601A80294039304920593FFF7E6FC93
:100F1C0010B010BD08B5FFF737F9FFF7D1FFFFF799
:100F2C00FBFE00F079F801220C481146FFF7F6FAA7
:100F3C0001220B481146FFF7F1FA4FF4FA50FFF774
:100F4C004FFF4FF47A70FFF743F94FF4FA50FFF765
:100F5C007FFF4FF47A70FFF73BF9EEE70008014092
:100F6C00000C0140704700000E4B82B09A6942F0B1
:100F7C0001029A619A6902F001020092009ADA6900
:100F8C0042F08052DA61DB69074A03F08053019327
:100F9C00019B536823F0E06343F00073536002B08D
:100FAC00704700BF00100240000001407047FEE790
:100FBC00FEE7FEE7FEE7704770477047FFF7F6B8AD
:100FCC000148FFF701BE00BF780000200F4B1A68E4
:100FDC0042F001021A6059680D4A0A405A601A68B8
:100FEC0022F0847222F480321A601A6822F4802271
:100FFC001A605A6822F4FE025A604FF41F029A607B
:10100C004FF00062034B9A60704700BF0010024023
:10101C000000FFF800ED00E008B54FF4E13E0A488F
:10102C000A4B0C2280E80840002342618360C360B5
:10103C0003618361C361FFF757FD18B1BDE8084038
:10104C00FFF790BF08BD00BF7800002000440040AF
:10105C0010B5044686B01022002102A800F084F8D6
:10106C0022681A4B9A422FD103F5E633DA6902A9AA
:10107C0042F40032DA61DA69154802F40032009267
:10108C00009A9A69002442F004029A619B6903F069
:10109C0004030193019B0423029302230393032370
:1010AC000593FFF759F9082309480DEB0301029347
:1010BC0003940494FFF750F9262022462146FFF7AB
:1010CC00ABF82620FFF7DCF806B010BD004400405A
:1010DC0000080140002103E00B4B5B5843500431E6
:1010EC000A480B4B42189A42F6D30A4A02E00023F4
:1010FC0042F8043B084B9A42F9D3FFF767FF00F024
:10110C000FF8FFF707FF7047CC1100080000002014
:10111C000C0000200C000020B8000020FEE70000AE
:10112C0070B500250C4E0D4CA41BA410A54209D182
:10113C0000F022F800250A4E0A4CA41BA410A5426C
:10114C0005D170BD56F8253098470135EEE756F8B5
:10115C00253098470135F2E7C4110008C411000886
:10116C00C4110008C811000803460244934200D180
:10117C00704703F8011BF9E7F8B500BFF8BC08BCD1
:10118C009E467047F8B500BFF8BC08BC9E46704739
:10119C0002030405060708090A0B0C0D0E0F1010AC
:1011AC00000000000000000001020304060708090B
:0811BC00000000000102030421
:0411C40031010008ED
:0411C8000D0100080D
:0C11CC0001000000100000000024F400EE
:04000005080010E1FE
:00000001FF
